:020000040800F2
:1000000020BF0020991600089D0700080BC00008BB
:100010009F070008A3070008A707000800000000CA
:10002000000000000000000000000000AB07000816
:10003000AD1600080000000057BF0008CD060008FC
:10004000B3160008B3160008B3160008B31600086C
:10005000B3160008B3160008610C0008730C000802
:10006000850C0008970C0008A90C0008B3160008BE
:10007000B3160008B3160008B3160008B31600083C
:10008000B3160008B3160008B3160008B31600082C
:10009000B3160008B3160008B3160008BB0C00081E
:1000A000B3160008B3160008B3160008B31600080C
:1000B000B3160008B3160008B3160008B3160008FC
:1000C000B3160008B3160008B3160008B3160008EC
:1000D000B3160008B3160008B3160008BF0E0008D8
:1000E000E90C0008B3160008B3160008B3160008A0
:1000F000B3160008B3160008B3160008B3160008BC
:1001000000000000B3160008B3160008B31600087C
:100110000000000000000000B3160008B31600083D
:10012000B3160008B3160008B3160008B31600088B
:10013000B3160008B3160008B3160008B31600087B
:10014000B3160008B3160008B3160008E91100083A
:10015000B3160008B3160008B3160008B31600085B
:10016000B3160008B31600080000000000000000ED
:10017000000000000000000000000000000000007F
:10018000B3160008B31600080000000000000000CD
:10019000B3160008B31600080000000000000000BD
:1001A000000000000000000000000000000000004F
:1001B000B31600080000000000000000B31600089D
:1001C000B316000800F002F800F065F80AA090E805
:1001D000000C82448344AAF10107DA4501D100F002
:1001E0005AF8AFF2090EBAE80F0013F0010F18BF6A
:1001F000FB1A43F001031847C4820100E4820100A6
:100200000A444FF0000C10F8013B13F0070408BF3C
:1002100010F8014B1D1108BF10F8015B641E05D0DA
:1002200010F8016B641E01F8016BF9D113F0080F8F
:100230001EBF10F8014BAD1C0C1B09D16D1E58BF21
:1002400001F801CBFAD505E014F8016B01F8016B58
:100250006D1EF9D59142D6D37047000000230024CB
:1002600000250026103A28BF78C1FBD8520728BFC6
:1002700030C148BF0B607047732914F0F08600202E
:1002800070471FB515F085FC14F0E2FF1FBD10B5D7
:1002900015F047F810BD15F0CAFA1146FFF7F1FF47
:1002A00007F00EFA15F0F2FB03B4FFF7F0FF03BC02
:1002B00014F0B4FA38B54FF4004106480EF086F851
:1002C0000446002304A205A1009018460CF0BBFED2
:1002D000002038BD3804002072616D002F0000003E
:1002E000A8B0064685E04FF0FF33882206A9704883
:1002F00008F067FE00B17CE09DF81800B0B101285D
:1003000045D0022873D101A908A80DF007FA694861
:100310000FF012F903AA00213046079B07F01BFBE0
:100320004FF0FF3163480FF01CF960E0079809F0C7
:10033000D1FD054625B92B225F4960A009F086FC56
:1003400063A108A814F0F5FB044624B92D225A49EC
:1003500060A009F07BFC234601212846079A15F08E
:100360008FFA54480FF0E8F82A4600213046079BE0
:1003700007F0F1FA4FF0FF314E480FF0F2F828463F
:1003800009F0ADFE0025204614F0FAFB2FE0079897
:1003900018B908A80CF077F929E0079809F09AFD38
:1003A000054650A108A814F0C4FB044624B93F2216
:1003B000414948A009F04AFC4B480FF0BDF82A46D5
:1003C00000213046079B07F0A0FA4FF0FF31464866
:1003D0000FF0C7F8234601212846079A15F0DCFAEA
:1003E000204614F0CDFB284609F079FE002500BF19
:1003F00000BF78E730B5A3B004460D460020605535
:1004000020788DF80400D4F801000290611D03A843
:1004100014F01AFC882201A9254808F0DEFC23B05C
:1004200030BD70B504460D462F480FF0FDF8002092
:1004300070BD70B504460D461E480FF0F5F800205B
:1004400070BD1FB529A007F057F9044624B96322EF
:10045000284929A009F0FAFB2C4A0321204607F07D
:10046000A0FA2B48E0612B4820620321204607F0C8
:10047000DEF900204FF40C718823274ACDE90010E3
:100480001AA10B4808F0D9FB142006214FF4805222
:10049000224BCDE90032CDE902102346204A13A1B8
:1004A00020480AF0BDFF1F480BF014F804B010BD3F
:1004B00050840020448400209C5B010870627566B3
:1004C00066657220213D2052545F4E554C4C000011
:1004D00072000000667020213D2052545F4E554C42
:1004E0004C000000770000003884002077696E75AA
:1004F00073620000AD5B0108646576696365202165
:100500003D2052545F4E554C4C000000F50300084E
:10051000230400083304000884840020348700206A
:10052000E1020008B486002030B5A3B008255424A9
:1005300000BF002001909348006840F0805091492E
:1005400008600846006800F08050019000BF00BFBE
:1005500000BF002001908C48006840F440408A4968
:1005600008600846006800F44040019000BF00BFEA
:10057000012016900004179002201C9041051D9147
:1005800005F00100C0BB69081E9160003021B0FB7E
:10059000F1F201FB120020B91F94022116A881621A
:1005A00063E0A0003021B0FBF1F201FB120028B99A
:1005B00061001F91042116A8816256E004EB4400FB
:1005C00040003021B0FBF1F201FB120030B904EB26
:1005D00044011F91062116A8816246E0E000302107
:1005E000B0FBF1F201FB120000283ED1A1001F91E7
:1005F000082116A8816238E0FFE71E9560003021CF
:10060000B0FBF1F201FB120028B961001F91022139
:1006100016A8816229E0A0003021B0FBF1F201FBB5
:10062000120028B9A1001F91042116A881621CE0C4
:1006300004EB440040003021B0FBF1F201FB12005A
:1006400038B904EB440041001F91062116A88162CD
:100650000BE0E0003021B0FBF1F201FB120020B909
:10066000E1001F91082116A881621E98B5FBF0F0E9
:100670001F9948433021B0FBF1F116A8C16204F084
:1006800047F808B100BFFEE70F201190022012903A
:10069000002013904FF480501490002015900221F8
:1006A00011A803F0A6FA08B100BFFEE700200290EF
:1006B000029840F02000029000200C9002A803F065
:1006C0008BFC08B100BFFEE723B030BD10B508F0C9
:1006D000B5FD01F050F806F07CFF08F0C6FD10BD36
:1006E00070B5044603F09DFB6421B0FBF1F528468C
:1006F00001F05CF900222146501E01F0E1F80020D3
:1007000070BD01B500980BF08CF808BD70477047BC
:1007100010B5032001F0C2F8002211466FF00B0063
:1007200001F0CEF8002211466FF00A0001F0C8F87F
:10073000002211466FF0090001F0C2F800221146B4
:10074000501F01F0BDF800221146101F01F0B8F84B
:1007500000220F21901E01F0B3F800220F21501E3D
:1007600001F0AEF810BD10B5FFF7DEFE00F0C7FFD8
:100770000649074809F048FB06F05AFF05A009F0B2
:10078000D7F910BD4038024000700040000004203E
:1007900020BF00207561727433000000704700BFF5
:1007A000FEE700BFFEE700BFFEE7704708B500BFE9
:1007B00000200090F748006840F00100F54908600B
:1007C0000846006800F00100009000BF00BF08BDAF
:1007D00008B500BF00200090EE48006840F002001D
:1007E000EC4908600846006800F00200009000BF75
:1007F00000BF08BD08B500BF00200090E5480068B4
:1008000040F00400E34908600846006800F0040076
:10081000009000BF00BF08BD08B500BF00200090D9
:10082000DC48006840F00800DA49086008460068C3
:1008300000F00800009000BF00BF08BD08B500BF71
:1008400000200090D348006840F01000D1490860B3
:100850000846006800F01000009000BF00BF08BD0F
:1008600008B500BF00200090CA48006840F0200092
:10087000C84908600846006800F02000009000BFEA
:1008800000BF08BD08B500BF00200090C148006847
:1008900040F04000BF4908600846006800F0400092
:1008A000009000BF00BF08BD0146912907D2BA4A97
:1008B00002EB01100268521C12B9002000E0002077
:1008C00070472DE9F04107460D461646E8B2FFF79E
:1008D000EBFF04460CB9BDE8F081F2B2A38999B2EE
:1008E000A06801F067FF00BFF5E72DE9F04107467A
:1008F0000D460026E8B2FFF7D7FF044614B930468C
:10090000BDE8F081A28991B2A06801F04BFF0646D4
:100910003046F5E7F0B585B007460E461446F0B20E
:10092000FFF7C2FF05460DB905B0F0BD6868804706
:10093000E8680090012001900020029003200390BD
:1009400024B9012001900020029019E0012C03D16C
:1009500000200190029013E0022C04D100200190AD
:10096000012002900CE0032C04D100200190022011
:10097000029005E0042C03D1112001900020029088
:100980006946A86801F092FD00BFCDE7024600214C
:1009900006E001208840904201D108467047491C7A
:1009A0002029F6DB4FF0FF30F8E72DE9F05F8346B2
:1009B0000D4616461F46DDF828804FF0FF34E8B29A
:1009C000FFF772FF8146B9F1000F02D10620BDE8A2
:1009D000F09FD9F80C00FFF7D9FF0446002C01DB8B
:1009E000102C01D30620F2E70BF09EFA824604EBAE
:1009F00044006A4931F92000A84219D104EB4400AF
:100A000001EB80004068B84212D104EB440001EBD6
:100A100080004088B0420BD104EB440001EB800021
:100A20008068404504D150460BF082FA0020CEE7A2
:100A300004EB4400594931F92000401C20B15046D4
:100A40000BF076FA0720C2E728B204EB4401534AC0
:100A500022F8210004EB4400114601EB80004760BE
:100A600004EB440102EB81014E8004EB440011468B
:100A700001EB8000C0F8088050460BF059FA0020C6
:100A8000A5E72DE9F04180460D464FF0FF34E8B26E
:100A9000FFF70AFF064616B90620BDE8F081F068A8
:100AA000FFF774FF0446002C01DB102C01D3062055
:100AB000F3E70BF039FA074604EB4400374931F904
:100AC0002000401C20B938460BF032FA0020E4E741
:100AD0004FF0FF3004EB4401304A22F8210000209F
:100AE00004EB440102EB8101486004EB440102EB9A
:100AF0008101488004EB440102EB810188603846A3
:100B00000BF016FA0020C8E72DE9F04F85B08946B2
:100B100017464FF0FF3609F0FF00FFF7C5FE044609
:100B20001CB9062005B0BDE8F08F012F55D1E06853
:100B3000FFF72CFF0646002E01DB102E01D3062006
:100B4000F0E70BF0F1F9834606EB4600134931F963
:100B50002000401C20B958460BF0EAF90620E1E7D6
:100B60000F4800EB860560688047E0680090002031
:100B700002900320039006EB4600084901EB800039
:100B8000408820B101280FD0022813D10FE005487A
:100B900001900FE030380240C45B010800000020E3
:100BA000D4640108000011105E48019002E05E4824
:100BB000019000BF00BF6946A06801F077FC95F97D
:100BC00002000022052100F07BFE95F9020000F0F2
:100BD000B5FE58460BF0ACF91CE0CFB9D4F80CA028
:100BE0005046FFF7D3FE8046B8F1000F02DBB8F1A4
:100BF000100F01D3002002E04C4800EB88000546AE
:100C00000DB906208EE795F9020000F0A4FE01E080
:100C1000062087E7002085E710B50022444945A05B
:100C20000DF06CFC0446204610BD70B50546284604
:100C3000FFF7ACFE044604EB44003F4901EB8000A3
:100C4000406858B104EB44020B4603EB8202906803
:100C500004EB440203EB82025168884700BF70BD79
:100C600010B508F0EBFA012001F0C6FD08F0FDFA1E
:100C700010BD10B508F0E2FA022001F0BDFD08F049
:100C8000F4FA10BD10B508F0D9FA042001F0B4FD53
:100C900008F0EBFA10BD10B508F0D0FA082001F00A
:100CA000ABFD08F0E2FA10BD10B508F0C7FA10204D
:100CB00001F0A2FD08F0D9FA10BD10B508F0BEFA97
:100CC000202001F099FD402001F096FD802001F0E8
:100CD00093FD4FF4807001F08FFD4FF4007001F030
:100CE0008BFD08F0C2FA10BD10B508F0A7FA4FF45A
:100CF000806001F081FD4FF4006001F07DFD4FF454
:100D0000805001F079FD4FF4005001F075FD4FF473
:100D1000804001F071FD4FF4004001F06DFD08F0DE
:100D2000A4FA10BD0000211000003110D4640108A5
:100D30001465010870696E000000002070B5064659
:100D40000D4626B92E22FB49FBA008F07FFF25B9EE
:100D50002F22F849FDA008F079FFB46C2868606084
:100D60000021A1610C2161610021E161287900F07D
:100D70000F00082802D0092807D102E00021A16055
:100D800006E04FF48051A16002E00021A16000BFA5
:100D900000BF2879C0F3011010B1012807D102E08B
:100DA0000021E16006E04FF40051E16002E0002123
:100DB000E16000BF00BF2879C0F3811020B1012895
:100DC00005D002280BD106E0002121610AE04FF492
:100DD000C061216106E04FF48061216102E00021E1
:100DE000216100BF00BF204604F0D1F808B1012006
:100DF00070BD0020FCE72DE9F04105460E46174680
:100E000025B96D22D549CCA008F020FFAC6C102E7E
:100E100013D0112E25D194F9400000F01F020121BA
:100E20009140CF4A430942F8231000BF2068C068B0
:100E300020F020002168C86013E094F9400000F021
:100E40001F02012191404209920002F1E022C2F802
:100E5000001100BF2068C06840F020002168C86011
:100E600000BF00BF0020BDE8F08170B504460E460B
:100E700024B98722BB49B0A008F0E8FEA56C00BFEA
:100E800028680068C0F3C0100028F9D028684660C0
:100E9000012070BD70B5044624B99422B249A6A0C1
:100EA00008F0D4FEA56C4FF0FF3628680068C0F348
:100EB000401010B128684068C6B2304670BD10B509
:100EC000AA4C08F0BBF920680068C0F3401060B17C
:100ED0002068C06800F0200038B10121A4480EF05D
:100EE0007EF96FF020002168086008F0BEF910BD9F
:100EF00010B586B004469F492068884231D100BFB2
:100F0000002000909C48006840F010009A4908605A
:100F10000846006800F01000009000BF00BF00BF4E
:100F20000020009094481438006840F00100924975
:100F3000143908600846006800F00100009000BF06
:100F400000BF4FF4C0600190022002900120039086
:100F5000032004900720059001A9884801F0A6FA13
:100F6000A2E087492068884232D100BF002000906B
:100F70008148001F006840F400307F49091F086065
:100F80000846006800F40030009000BF00BF00BFBA
:100F90000020009078481438006840F0010076493D
:100FA000143908600846006800F00100009000BF96
:100FB00000BF0C200190022002900120039003202A
:100FC00004900720059001A96C4801F06FFA6BE0CE
:100FD0006C492068884233D100BF002000906648E9
:100FE000001F006840F480206349091F086008461C
:100FF000006800F48020009000BF00BF00BF002008
:1010000000905D481438006840F008005A491439CF
:1010100008600846006800F00800009000BF00BFAC
:101020004FF44070019002200290012003900320B1
:1010300004900720059001A9534801F037FA33E0E6
:101040005249206888422FD100BF002000904A48B2
:10105000006840F02000484908600846006800F039
:101060002000009000BF00BF00BF00200090424859
:101070001438006840F004003F49143908600846FD
:10108000006800F00400009000BF00BFC020019085
:101090000220029001200390032004900820059074
:1010A00001A93B4801F002FA06B010BD10B5044694
:1010B0003049206888420BD12F48006820F010008A
:1010C0002D4908604FF4C0612C4801F0D3FA30E09C
:1010D0002B49206888420CD12748001F006820F463
:1010E00000302549091F08600C21244801F0C2FA8C
:1010F0001FE02449206888420DD11F48001F006866
:1011000020F480201C49091F08604FF440711E48DC
:1011100001F0B0FA0DE01D492068884209D1164857
:10112000006820F0200014490860C021184801F030
:10113000A1FA10BD4065010873657269616C2021D8
:101140003D2052545F4E554C4C00000063666720B2
:10115000213D2052545F4E554C4C00004E65010815
:1011600080E100E05A6501086365010834970020BA
:1011700078970020001001404438024000000240EF
:101180000044004000480040000C024000140140B0
:10119000000802401CB50D4903C9CDE900010C4C03
:1011A0000C482060272084F840000B480B49C86495
:1011B0000846DDE90012C0E91412234640F203128A
:1011C00007A10DF0E1FF00201CBD00006C650108C7
:1011D00034970020004800402C65010878970020D3
:1011E000756172743300000010B508F027F8C74825
:1011F00001F079FC08F039F810BD10B50446002361
:1012000040221946204602F026F800234022802181
:10121000204602F020F8BE4810F0DBFD10BD10B5EE
:10122000044604F56F71BA4810F02AFD10BD70B580
:1012300005460C461CB9B64810F04AFD0BE0C4EB5D
:10124000C40305F1380000EB830044F0800182699B
:10125000AF4810F08EFD70BD10B50446AC4810F0DC
:10126000CBFD10BD10B50446A94810F0EBFD10BD34
:1012700010B50446A64810F0D2FD10BD70B5044666
:101280000D465DB1C5EBC50104F5FC7000EB8100B6
:10129000294682699E4810F084FD05E04FF40470F1
:1012A00001599B4810F050FD70BD704710B586B0D5
:1012B00004462068B0F1A04F42D100BF002000904A
:1012C0009448006840F001009249086008460068B0
:1012D00000F00100009000BF00BF4FF4C05001902B
:1012E0000220029000200390032004900A20059021
:1012F00001A9894801F0DAF800BF8648001D00689E
:1013000040F080008349091D086000BF0020009064
:1013100080481430006840F480407E4914310860F1
:101320000846006800F48040009000BF00BF00BF86
:1013300000220521432000F0C3FA432000F0FEFA0A
:1013400006B010BD10B504462068B0F1A04F0FD113
:101350007048001D006820F080006E49091D08607B
:101360004FF4C0516C4801F085F9432000F0F3FAC6
:1013700010BD10B504462146644802F060F8002014
:1013800010BD10B504462146604802F095F80020D3
:1013900010BD10B5044621465C4801F043FF002013
:1013A00010BD01460020704710B5044624B9B12293
:1013B0005A495BA008F04AFCA06820B9B2225749FC
:1013C0005BA008F043FCA068C378828881784F480E
:1013D00001F041FF002010BD10B5044624B9BB2226
:1013E00059494FA008F032FCA06820B9BC225649E8
:1013F0004FA008F02BFCA0688178444801F071FFF1
:10140000002010BD70B506460C46002524B9C52243
:101410004E494FA008F01AFC284670BD70B505462D
:101420000E461446234632462946384801F0A2FFAC
:10143000204670BD70B505460E461446234632461A
:101440002946324801F0CEFF204670BD10B500237A
:101450001A4619462D4801F0C5FF002010BD002096
:1014600070470020704770B50546AC6C4FF0A04047
:101470002060042060600221E1600021216161613F
:101480000221A1610021E16121626162E1622163C7
:10149000204601F0D4F98021204602F0AEF8402227
:1014A0000021204602F080F840220121204602F06F
:1014B0007BF840220221204602F076F840220321E8
:1014C000204602F071F8204601F097FA002070BD26
:1014D00010B5982200210E4807F019FF09200C4989
:1014E000087520484862094888641F48C8641F4836
:1014F000C1F8940001460648C0F8841000221CA1DF
:1015000006F029F910F0EEFD002010BDD89700205C
:10151000D89B00203038024000000240A46501083A
:10152000657020213D2052545F4E554C4C00000008
:1015300065702D3E65705F6465736320213D2052A8
:10154000545F4E554C4C0000AF650108BB65010867
:1015500062756666657220213D2052545F4E554C7F
:101560004C0000006714000874650108C0000020EA
:1015700075736264000000003F48006840F470002A
:101580003D4908603D48006840F001003B49086063
:1015900000203A4908310860384800683849084056
:1015A000364908603748091D0860081F006820F4A4
:1015B0008020091F0860002030490C3108604FF07E
:1015C00000602D4980390860704770B50020002206
:1015D000022300240221294D08352D6805F00C0056
:1015E00020B1042806D0082834D107E0264D274E24
:1015F000356033E0264D254E35602FE01F4D2D1D03
:101600002D68C5F380541D4D2D1D2D6805F03F013B
:1016100054B11F4DB5FBF1F5184E361D3668C6F3B3
:10162000881605FB06F209E0174DB5FBF1F5134EE0
:10163000361D3668C6F3881605FB06F20F4D2D1DC4
:101640002D68C5F301456D1C6B00B2FBF3F50F4E21
:10165000356003E00C4D0D4E356000BF00BF074DF7
:1016600008352D68C5F303150A4E705D074D2D68CA
:10167000C540064E356070BD88ED00E00038024080
:10168000FFFFF6FE103000240024F40000010020CB
:1016900000127A00C46501080948804709480047DC
:1016A000FEE7FEE7FEE7FEE7FEE7FEE7FEE7FEE712
:1016B000FEE7FEE704480549054A064B704700006F
:1016C00079150008C501000820B9002020BF0020BE
:1016D00020BB002020BB0020704770B504465F4847
:1016E00000684FF47A71B0FBF1F5284600F05EF91E
:1016F00000222146501E00F0E3F8002070BD10B516
:101700005748006840F40070554908600846006872
:1017100040F4806008600846006840F4807008600B
:10172000032000F0BBF80F20FEF7DAFFFEF7F0FF12
:10173000002010BD704710B54FF0FF3049490860D8
:1017400000200860401E091D086000200860401E3F
:1017500044491039086000200860401E091D0860D7
:1017600000200860401E091D086000200860FFF787
:10177000E1FF002010BD3C480068401C3A49086069
:10178000704739480068704731B5FFF7FAFF0546E2
:10179000009C601C00B1641C00BFFFF7F2FF401BFF
:1017A000A042FAD338BD4FF0E020006920F00200DB
:1017B0004FF0E021086170474FF0E020006940F0F1
:1017C00002004FF0E0210861704728487047284820
:1017D0000068000C704726480068C0F30B00704793
:1017E0002348406840F00100214948607047204884
:1017F000406820F001001E49486070471C4840685E
:1018000040F002001A49486070471948406820F0CB
:1018100002001749486070471548406840F00400CE
:101820001349486070471248406820F0040010498E
:101830004860704701200F490860704700200D493B
:10184000086070470C49096801600B49091D096867
:101850004160094908310968816070470001002032
:10186000003C024020380240040100200002070131
:10187000002004E000042742107AFF1F10B5002862
:1018800007DA0A07140ED94A00F00F031B1FD454BD
:1018900003E00A07130ED64A135410BD00BF00F030
:1018A0000702D24B0C3B19684FF6FF031940D14B8E
:1018B0000B4343EA0221CD4B0C3B196000BF70473C
:1018C0002DE9F05F80460D461646002700F087F9A7
:1018D000074639462A46334601F00700C0F1070A99
:1018E000BAF1040F02D94FF0040A01E0C0F1070A6F
:1018F000D14600F1040ABAF1070F02D24FF0000AF4
:1019000001E0A0F1030AD4464FF0010A0AFA09FAED
:10191000AAF1010A0AEA020A0AFA0CFA4FF0010BCC
:101920000BFA0CFBABF1010B0BEA030B4AEA0B04BD
:1019300021464046FFF7A2FFBDE8F09F00BF00F040
:101940001F02012191404209920002F1E022C2F8F7
:10195000001100BF704700BF00F01F02012191403D
:10196000A54A430942F8231000BF704700BF00BFDB
:1019700000BF00BF00BFBFF34F8F00BF00BF00BF5D
:101980009A480C38006800F4E0609A490843001D4A
:1019900096490C39086000BF00BF00BFBFF34F8FEE
:1019A00000BF00BF00BF00BF00BFFDE770B5044629
:1019B0002546681EB0F1807F01D301200FE0681E2C
:1019C0004FF0E02148610F214FF0FF30FFF756FF45
:1019D00000204FF0E021886107200861002070BDE1
:1019E00000BF00BF00BFBFF35F8F00BF00BF00BFDD
:1019F0007E480C30006820F480307C490C3108604F
:101A000000207A497C310860704740F00101774A34
:101A10007C32116075490C31096841F48031734A98
:101A20000C32116000BF00BF00BFBFF34F8F00BF7B
:101A300000BF00BF00BF00BF00BFBFF36F8F00BF7C
:101A400000BF00BF70474178684A8032116001785A
:101A5000F9B1121D41681160017B0907C27A41EAA0
:101A60000261827A41EAC241427B41EA8241827B41
:101A700041EA4241C27B41EA0241427A41EA022103
:101A8000027A41EA420102781143584A88321160D1
:101A900005E00021554A84321160121D1160704723
:101AA00010B500F09CF810BD2DE9F0430446204627
:101AB000002808DA4D4F00F00F0CACF1040C17F8B9
:101AC0000C703F0902E04A4F3F5C3F093D460E461D
:101AD00006F00700C0F10708B8F1040F02D94FF073
:101AE000040801E0C0F10708C44600F10408B8F199
:101AF000070F02D24FF0000801E0A0F103084746AB
:101B000025FA07F84FF0010909FA0CF9A9F10109C2
:101B100008EA0908C2F800804FF0010808FA07F83F
:101B2000A8F1010808EA0508C3F8008000BFBDE875
:101B3000F08300BF00F01F02012191402E4A803245
:101B4000430942F8231000BF704710B5014608460C
:101B5000294A8032430952F8232000F01F04012350
:101B6000A3401A400AB1012200E00022104610BD35
:101B700000BF00F01F0201219140204A430942F8B2
:101B8000231000BF704710B5014608461B4A80323B
:101B9000430952F8232000F01F040123A3401A40F8
:101BA0000AB1012200E00022104610BD042808D12D
:101BB0004FF0E021096941F004014FF0E02211618A
:101BC00007E04FF0E021096921F004014FF0E02225
:101BD00011617047704710B5FFF7FCFF10BD034857
:101BE0000C380068C0F302207047000018ED00E0D8
:101BF00000E400E00000FA0580E100E080E200E09F
:101C00000146087810381823B0FBF3F2FB48805CDB
:101C1000C865032A05D908686FF30900001D8865A7
:101C200003E008686FF309008865886D7047014616
:101C300000208A6A8B69CBB932B1012A0DD0022A01
:101C400003D0032A10D10EE000BFCB6A03F08073EB
:101C5000B3F1807F00D1012007E0CB6AB3F1C07FF0
:101C600000D1012001E000E000BF34E08B69B3F552
:101C7000005F1AD132B1012A07D0022A03D0032A09
:101C800011D10AE000BF01200EE0CB6A03F080739F
:101C9000B3F1807F00D1012006E0CB6AB3F1C07FB1
:101CA00000D1012000E000BF15E032B1012A05D0CB
:101CB000022A04D0032A0CD103E000BF00BF012098
:101CC00008E0CB6A03F08073B3F1807F00D101207C
:101CD00000E000BF00BF70472DE9F0410446002539
:101CE000FFF74FFD074614B90120BDE8F081606A97
:101CF00000B100BF00BF002084F8340000BF022004
:101D000084F835002068006820F001002168086030
:101D10000AE0FFF736FDC01B052805D920206065C5
:101D2000032084F83500E0E72068006800F0010037
:101D30000028EED120680568B1480540D4E90101CA
:101D40000843E16808432169084361690843A169C0
:101D50000843E1690843216A08430543606A04288F
:101D600003D1D4E90B0108430543206805602068CE
:101D7000456925F00705606A0543606A04280DD1AE
:101D8000A06A0543E06A48B12046FFF750FF28B13A
:101D900040206065012084F83500A6E72068456191
:101DA0002046FFF72DFF064694F85C103F20884040
:101DB000B06000206065012084F83500002094E7C1
:101DC00070B504460CB9012070BD94F835000228A6
:101DD00000D1F9E72068006820F001002168086060
:101DE00000202168086021684860216888602168B7
:101DF000C860216808612120216848612046FFF7FA
:101E0000FFFE054694F85C103F208840A860002043
:101E1000606584F8350000BF84F8340000BF00BF5F
:101E2000D2E730B50468246824F4802405682C6067
:101E3000046863608468402C04D10468A26004686C
:101E4000E16003E00468A1600468E26030BD2DE950
:101E5000F04104460D4616461F464FF0000800BFED
:101E600094F83400012802D10220BDE8F08101205D
:101E700084F8340000BF94F83500012811D1022005
:101E800084F83500002060653B46324629462046EE
:101E9000FFF7C7FF2068006840F001002168086074
:101EA00006E000BF002084F8340000BF4FF00208B5
:101EB0004046DAE72DE9F04704460D4616461F4630
:101EC0004FF00008D4F8589000BF94F8340001286F
:101ED00002D10220BDE8F087012084F8340000BF61
:101EE00094F8350001282BD1022084F83500002019
:101EF00060653B46324629462046FFF792FF94F83C
:101F00005C103F208840C9F808002068006840F055
:101F10001600216808602068406940F08000216850
:101F20004861206C28B12068006840F008002168F2
:101F300008602068006840F001002168086006E041
:101F400000BF002084F8340000BF4FF00208404674
:101F5000C0E770B50446A56DFFF713FC064694F87C
:101F60003500022808D08020606500BF002084F87A
:101F7000340000BF012070BD2068006820F016000A
:101F8000216808602068406920F08000216848616D
:101F9000206C08B9A06C28B12068006820F0080007
:101FA000216808602068006820F00100216808604E
:101FB0000FE0FFF7E6FB801B05280AD920206065AB
:101FC00000BF002084F8340000BF032084F83500EF
:101FD000D1E72068006800F001000028E9D194F8FA
:101FE0005C103F208840A86000BF002084F83400C7
:101FF00000BF012084F835000020BCE7DC65010843
:102000003F8010F0014691F83500022803D080206F
:10201000486501207047052081F835000868006890
:1020200020F001000A6810600020F3E72DE9F05F5E
:102030000446884617464FF0000AFFF7A2FB834686
:1020400094F83500022809D08020606500BF002088
:1020500084F8340000BF0120BDE8F09F20680068CC
:1020600000F4807020B14FF4807060650120F3E7C8
:10207000B8F1000F05D194F85C10202000FA01F9A6
:1020800004E094F85C10102000FA01F9A56D2E68A8
:1020900042E0781C90B12FB1FFF773FBA0EB0B006F
:1020A000B8420BD92020606500BF002084F83400BE
:1020B00000BF012084F835000320CDE72E6894F896
:1020C0005C1008208840304040B1606D40F0010055
:1020D000606594F85C1008208840A86094F85C1053
:1020E00001208840304040B1606D40F002006065E2
:1020F00094F85C1001208840A86094F85C100420DB
:102100008840304040B1606D40F00400606594F854
:102110005C1004208840A86006EA090020B9606DC0
:1021200000F001000028B4D0606DA0B1606D00F037
:10213000010080B12046FFF70CFF94F85C103020BE
:102140008840A86000BF002084F8340000BF012050
:1021500084F8350080E7B8F1000F0DD194F85C10D9
:1021600030208840A86000BF002084F8340000BF01
:10217000012084F8350004E094F85C1010208840B9
:10218000A860504668E7F8B5044600200090C648AD
:1021900000684FF41651B0FBF1F7A56D2E6894F866
:1021A0005C1008208840304098B12068006800F03A
:1021B000040070B12068006820F004002168086005
:1021C00094F85C1008208840A860606D40F0010021
:1021D000606594F85C1001208840304068B1206848
:1021E000406900F0800040B194F85C100120884004
:1021F000A860606D40F00200606594F85C100420F7
:102200008840304068B12068006800F0020040B1AA
:1022100094F85C1004208840A860606D40F00400D1
:10222000606594F85C1010208840304078B32068D6
:10223000006800F0080050B394F85C10102088404B
:10224000A8602068006800F4802080B120680068E1
:1022500000F4002028B9206CC8B12046216C8847C2
:1022600015E0A06C98B12046A16C88470FE020686B
:10227000006800F4807028B92068006820F0080029
:1022800021680860206C10B12046216C884794F8C2
:102290005C10202088403040002865D0206800680D
:1022A00000F0100000285FD094F85C1020208840D7
:1022B000A86094F83500052828D12068006820F02F
:1022C0001600216808602068406920F080002168BD
:1022D0004861206C08B9A06C28B12068006820F023
:1022E00008002168086094F85C103F208840A860CE
:1022F00000BF002084F8340000BF012084F83500BE
:10230000206D10B12046216D8847F8BD2068006817
:1023100000F4802080B12068006800F4002028B913
:10232000606C10B12046616C88471DE0E06BD8B14D
:102330002046E16B884717E02068006800F4807051
:1023400068B92068006820F010002168086000BFAC
:10235000002084F8340000BF012084F83500E06BD1
:1023600010B12046E16B8847606D38B3606D00F0B6
:102370000100F0B1052084F835002068006820F0E5
:1023800001002168086000BF0098401C0090B8421E
:1023900000D905E02068006800F001000028F3D1B2
:1023A00000BF00BF002084F8340000BF012084F883
:1023B0003500E06C10B12046E16C884700BFA4E70F
:1023C00010B50346002400BF93F83400012801D162
:1023D000022010BD012083F8340000BF93F83500BF
:1023E000012814D1062910D2DFE801F003050709FE
:1023F0000B0DDA630AE01A6408E05A6406E09A6496
:1024000004E0DA6402E01A6500E000BF00E00124A5
:1024100000BF002083F8340000BF2046D9E7024601
:10242000002300BF92F83400012801D10220704738
:10243000012082F8340000BF92F83500012824D131
:1024400007291FD2DFE801F004070A0D1013160058
:102450000020D06318E00020106415E000205064D4
:1024600012E0002090640FE00020D0640CE0002017
:10247000106509E00020D063106450649064D0645B
:10248000106501E0012300BF00E0012300BF002030
:1024900082F8340000BF1846C9E7014691F83500BC
:1024A00070470146486D704700010020F8B50246AC
:1024B0000B460025002400200021D7E0012606FA63
:1024C00001F51E6806EA0504AC4273D15E68022E6F
:1024D00002D05E68122E13D1CF0802F1200656F802
:1024E00027004E07F70E0F26BE40B0434F07FF0EE2
:1024F0001E69BE403043CF0802F1200646F827008F
:1025000010684F000326BE40B0431E7906F0030654
:102510004F00BE40304310605E68012E08D05E68F8
:10252000022E05D05E68112E02D05E68122E13D1E5
:1025300090684F000326BE40B0434F00DE68BE40A7
:1025400030439060506801268E40B0431E79C6F338
:1025500000168E4030435060D0684F000326BE40C6
:10256000B0434F009E68BE403043D0605E6806F0C6
:102570008056B6F1805F78D100BF00260096A54E48
:10258000366846F48046A34F3E603E46366806F401
:102590008046009600BF00BF9F4E8F0856F8270068
:1025A0008E07370F0F26BE40B0439C4EB24202D179
:1025B00000261FE059E09A4EB24201D1012619E0EF
:1025C000984EB24201D1022614E0974EB24201D198
:1025D00003260FE0954EB24201D104260AE0944E44
:1025E000B24201D1052605E0924EB24201D1062643
:1025F00000E007268F073F0FBE403043864E8F080E
:1026000046F827008C4E3068A0435E6806F480369A
:10261000B6F5803F00D12043874E3060361D3068CC
:10262000A0435E6806F40036B6F5003F00D12043B3
:10263000814E361D3060361D3068A0435E6806F45A
:102640008016B6F5801F00D120437B4E08363060DF
:10265000361D3068A0435E6806F40016B6F5001F0C
:1026600000D12043744E0C363060491C1029FFF411
:1026700025AFF8BDF0B50C4600250022002300214F
:102680008CE0012606FA01F504EA0502AA427DD192
:1026900006684FEA410C032707FA0CF7BE430660B1
:1026A000CF0800F1200656F827604F074FEAD76C95
:1026B0000F2707FA0CF7BE434FEAD10C00F12007B1
:1026C00047F82C6086684FEA410C032707FA0CF79D
:1026D000BE438660466801278F40BE434660C66899
:1026E0004FEA410C032707FA0CF7BE43C6604A4E77
:1026F0008F0856F827308E07370F0F26BE4033401D
:10270000464EB04201D100261EE0454EB04201D1F6
:10271000012619E0434EB04201D1022614E0424E98
:10272000B04201D103260FE0404EB04201D1042651
:102730000AE03F4EB04201D1052605E03D4EB042D1
:1027400001D1062600E007268F073F0FBE409E42BC
:1027500023D18E07370F0F2606FA07F32E4E8F0868
:1027600056F827709F434FEA910C46F82C70324E72
:1027700036689643304F3E603E1D366896433F1D97
:102780003E603E1D366896433F1D00E005E03E601A
:102790003E1D366896433F1D3E60491C1029FFF4DC
:1027A00070AFF0BD024613690B400BB1012000E091
:1027B000002070470AB1816101E00B04836170471A
:1027C00042694A404261704708B502464FF4803082
:1027D00000900098084300900098D061D161009863
:1027E000D061D0690090D06900F4803008B1002039
:1027F00008BD0120FCE7704710B504460E481430B0
:102800000068204028B10C48143004602046FEF7D0
:102810000CFA10BD44380240083801400000024064
:102820000004024000080240000C02400010024078
:102830000014024000180240003C0140704730B5CF
:102840008BB00446002514B901200BB030BD032025
:1028500084F8B9032046FEF729FD206803F01EFC2A
:10286000282204F11001684612F0D8FA94E80F000B
:1028700003F0D7FB0021206803F017FC002530E0AF
:102880000121C5EBC50204F1380000EB8200417064
:10289000C5EBC50204F1380000F82250C5EBC502B3
:1028A00000EB8200C5800021C5EBC50204F13800B1
:1028B00000EB8200C170C5EBC50204F1380000EBEB
:1028C00082008160C5EBC50204F1380000EB820094
:1028D000C160C5EBC50204F1380000EB8200416124
:1028E0006D1C0F2DCCD3002536E00021C5EBC502B1
:1028F00004F5FC7000EB82004170C5EBC50204F5E5
:10290000FC7000F82250C5EBC50204F1380000EB62
:102910008200C580C5EBC50204F5FC7000EB8200A7
:10292000C170C5EBC50204F5FC7000EB820081604C
:10293000C5EBC50204F5FC7000EB8200C160C5EB7D
:10294000C50204F5FC7000EB82004161206800F5CF
:10295000827040F825106D1C0F2DC6D3282204F17B
:102960001001684612F05AFA94E80F0003F0E6FBF3
:10297000012084F8B903606A012802D1204600F0E2
:1029800041FEA06A012802D1204600F0BEFE206868
:1029900004F0FEF9002058E7704710B5044600BF68
:1029A00094F8B803012801D1022010BD012084F859
:1029B000B80300BF206803F071FB206804F09EF9A3
:1029C000206804F0E5F900BF002084F8B80300BFD8
:1029D00000BFEAE710B504460CB9012010BD032082
:1029E00084F8B9032046FFF7D8FF2046FEF7AAFC7B
:1029F000002084F8B90300BFF0E710B5044600BF1B
:102A000094F8B803012801D1022010BD012084F8F8
:102A1000B80300BF206804F0ACF9206803F037FB6E
:102A200000BF002084F8B80300BF00BFEDE7704787
:102A300070477047704770477047704770472DE97F
:102A4000F84F07460E46D7F800800025AA46C6EB89
:102A5000C60107F1380000EB8104D4E90501451AED
:102A6000A068A84200D2A568E81C4FEA900917E0C8
:102A7000D4E90501451AA068A84200D2A568E81C5F
:102A80004FEA9009387CABB2F2B200904046E16860
:102A900003F03EFEE0682844E060A0692844A0619D
:102AA00008F5106000EB4610806980B2484506D9F1
:102AB000D4E90510884202D260690028D8D165B9EE
:102AC000012000FA06FA40F6340050F8080020EA27
:102AD0000A0040F6340141F808000020BDE8F88FF4
:102AE0007047704770472DE9FC5F044626684FF039
:102AF000000B002001908046002500908146FE4F8B
:102B0000206804F091F900286CD1206804F04FF996
:102B100008B9BDE8FC9F206804F049F900F0020004
:102B2000022805D12068406900F002002168486150
:102B3000206804F03CF900F40020B0F5002F7DD1AE
:102B40000025206804F039F9019082E0019800F036
:102B50000100002879D0E9B2206804F040F98046ED
:102B600008F00100E8B3012106F5306000EB4510E4
:102B70008160206901282BD1C5EBC50104F5FC70EB
:102B800000EB8100816806F5306000EB45100069BC
:102B9000C0F31200091AC5EBC50204F5FC7000EB86
:102BA00082008161C5EBC50104F5FC7000EB81007A
:102BB000C5EBC502C16804F5FC7000EB82008068BB
:102BC0000144C5EBC50204F5FC7000EB8200C16056
:102BD000E9B22046FEF752FB2069012811D105B960
:102BE00001E00EE0EEE2C5EBC50104F5FC7000EB80
:102BF0008100406928B904F56F720121206804F052
:102C00003AF908F00800082808D12046FEF707FB2B
:102C1000082106F5306000EB4510816008F01000D7
:102C2000102805D1102106F5306000EB45108160B9
:102C300008F02000202808D1202101E00DE004E068
:102C400006F5306000EB451081606D1C019840086E
:102C50000190019800287FF479AF206804F0A7F86C
:102C600000F48020B0F5802F7DD1206804F0AEF80C
:102C70000190002585E0019800F0010000287CD03B
:102C8000E9B2206804F0B6F8804608F00100E8B325
:102C90000120A840009040F63400805900998843F4
:102CA00040F634018851012106F5106000EB451013
:102CB00081602069012815D1C5EBC50104F13800F8
:102CC00000EB8100C5EBC502C16804F1380000EBE0
:102CD000820080680144C5EBC50204F1380000EBB6
:102CE0008200C160E9B22046FEF7A1FA20690128FE
:102CF00010D15DB9C5EBC50104F1380000EB8100CE
:102D0000406918B904F56F72012100E002E0206803
:102D100004F0B1F808F00800082805D1082106F5EC
:102D2000106000EB4510816008F01000102805D1FC
:102D3000102106F5106000EB4510816008F040009E
:102D4000402805D1402106F5106000EB4510816058
:102D500008F00200022805D1022106F5106000EB00
:102D60004510816001E010E007E008F08000802855
:102D700003D129462046FFF762FE6D1C01984008EA
:102D80000190019800287FF476AF206804F00FF8D6
:102D900000F00040B0F1004F1CD140F60400805913
:102DA00020F0010140F60400815194F8EC03012861
:102DB00007D1002084F8EC030021204600F044FCF9
:102DC00002E02046FFF73AFE2068406900F000402C
:102DD00021684861206803F0EAFF00F40060B0F564
:102DE000006F0ED140F60800805900F0010010B1CC
:102DF0002046FFF722FE2068406900F40060216849
:102E00004861206803F0D3FF00F00060B0F1006F6C
:102E100019D12068406900F000602168486194F889
:102E2000EC0368B9012084F8EC032068406DC0F31E
:102E30008300C4F8F0030121204600F005FC02E005
:102E40002046FFF7FAFD206803F0B1FF00F4805040
:102E5000B0F5805F60D140F60400805920F0010198
:102E600040F6040081511021206803F049F94FF029
:102E7000000B0CE0FF2106F5106000EB4B108160A9
:102E800006F5306000EB4B1081600BF1010B6068C0
:102E90005845EFD84FF0FF3140F618008151001D22
:102EA000805940F0011140F61C008151206B70B137
:102EB000D6F8840840F00B01C6F8841840F64400A8
:102EC000805940F00B0140F6440081510EE040F67D
:102ED0001400805940F02B0140F614008151001F6E
:102EE000805940F00B014FF401608151D6F8000881
:102EF00020F4FE6002E000000095BA0AC6F800085F
:102F0000217C04F56F72206803F0B5FF20684069EA
:102F100000F4805021684861206803F048FF00F405
:102F20000050B0F5005F7AD1206803F082FF20687E
:102F3000C06820F470502168C860206803F0CCF9A4
:102F400058B90021E1604FF4007161612068C068E8
:102F500040F410502168C86082E00321E160402104
:102F6000616100F05EFF0746F848874209D3F848E0
:102F7000874206D22068C06840F470502168C8605B
:102F80006EE0F348874209D3F248874206D22068B0
:102F9000C06840F460502168C86061E0ED48874235
:102FA00009D3ED48874206D22068C06840F45050EB
:102FB0002168C86054E0E848874209D3E74887425F
:102FC00006D22068C06840F440502168C86047E0DD
:102FD000E248874209D3E248874206D22068C068A7
:102FE00040F430502168C8603AE0DD48874209D398
:102FF000DC48874206D22068C06840F4205021682F
:10300000C8602DE0D74887420AD3D748874207D205
:103010002068C06840F410502168C86020E028E0B3
:10302000D148874209D3D148874206D22068C06878
:1030300040F400502168C86012E0CC48874209D3B0
:10304000CB48874206D22068C06840F4E05021682F
:10305000C86005E02068C06840F4C0502168C860BE
:103060002046FEF7CAF82068406900F40050216845
:103070004861206803F09BFE00F01000102845D145
:103080002068806920F0100021688861D6F82090BF
:1030900009F00F00C0EBC00104F5FC7000EB810AE1
:1030A000C9F3434002281AD147F6F07009EA00003C
:1030B00030B3C9F30A123046DAF80C1003F081FD80
:1030C000C9F30A11DAF80C000844CAF80C00C9F375
:1030D0000A11DAF818000844CAF8180010E0C9F319
:1030E000434006280CD1082204F56F71304603F0E6
:1030F00068FDC9F30A11DAF818000844CAF8180084
:103100002068806940F0100021688861206803F021
:103110004EFE00F00800082808D12046FEF7A2F86D
:103120002068406900F0080021684861206803F0C9
:103130003EFE00F48010B0F5801F09D1E9B22046B0
:10314000FFF778FC2068406900F48010216848612E
:10315000206803F02CFE00F40010B0F5001F09D128
:10316000E9B22046FFF765FC2068406900F40010D2
:1031700021684861206803F01AFE00F08040B0F139
:10318000804F08D12046FEF767F82068406900F0BC
:10319000804021684861206803F009FE00F00400C7
:1031A00004280FD12068D0F8049009F00400042806
:1031B00002D12046FEF75CF82068406840EA09002A
:1031C0002168486000BFA4E410B5044600BF94F82D
:1031D000B803012801D1022010BD012084F8B803F2
:1031E00000BF206803F0C5FD00BF002084F8B803CD
:1031F00000BF00BFF0E710B5044600BF94F8B80365
:10320000012801D1022010BD012084F8B80300BFBD
:10321000206803F0BDFD00BF002084F8B80300BFA4
:1032200000BFF0E770B504460D4600BF94F8B80340
:10323000012801D1022070BD012084F8B80300BF2D
:103240002946206803F083FD00BF002084F8B803FE
:1032500000BF00BFEFE72DE9F04705460E46904658
:103260001F464FF0000906F08000802808D106F0C4
:103270007F00C0EBC00105F1380000EB810407E0DE
:1032800006F07F00C0EBC00105F5FC7000EB810487
:1032900006F07F00207006F08000C0096070C4F85E
:1032A0000880E770607808B12078E080022F01D1B3
:1032B0000020207100BF95F8B803012802D1022038
:1032C000BDE8F087012085F8B80300BF21462868D3
:1032D00003F024F800BF002085F8B80300BF48467B
:1032E000EEE770B504460D4605F08000802808D151
:1032F00005F07F00C0EBC00104F1380000EB81064F
:1033000007E005F07F00C0EBC00104F5FC7000EBA6
:10331000810605F07F00307005F08000C0097070F4
:1033200000BF94F8B803012801D1022070BD01202C
:1033300084F8B80300BF3146206803F0E7F800BF07
:10334000002084F8B80300BF00BFEFE7C0ACD8008E
:10335000C0E1E4000024F40080730601A0491A01D2
:10336000002D310140A44C0100366E0120ABA601B6
:103370000048E8012DE9F04104460E4617469846FC
:1033800006F07F00C0EBC00104F5FC7000EB810586
:10339000EF60C5F814800020A861687006F07F0017
:1033A00028702069012800D12F6106F07F0028B91C
:1033B000227C2946206803F031FB04E0227C294668
:1033C000206803F0BDF90020BDE8F081024601F05D
:1033D0000F00C0EBC00302F5FC7000EB8300008B14
:1033E00080B270472DE9F04104460E4617469846D4
:1033F00006F07F00C0EBC00104F1380000EB81054E
:10340000EF60C5F814800020A8610120687006F004
:103410007F0028702069012800D12F6106F07F000D
:1034200028B9227C2946206803F0F8FA04E0227CBF
:103430002946206803F084F90020BDE8F08170B5CA
:1034400004460D4605F08000802808D105F07F0075
:10345000C0EBC00104F1380000EB810605E0C5EBCC
:10346000C50104F5FC7000EB81060120B07005F089
:103470007F003070C5F3C010707000BF94F8B803BF
:10348000012801D1022070BD012084F8B80300BFDB
:103490003146206803F0A6FB05F07F0028B9217CA7
:1034A00004F56F72206803F0E6FC00BF002084F88A
:1034B000B80300BF00BFE6E770B504460D4605F04F
:1034C0008000802808D105F07F00C0EBC00104F126
:1034D000380000EB810605E0C5EBC50104F5FC7082
:1034E00000EB81060020B07005F07F003070C5F35E
:1034F000C010707000BF94F8B803012801D10220F9
:1035000070BD012084F8B80300BF3146206803F085
:10351000AFFB00BF002084F8B80300BF00BFEFE797
:1035200070B504460D4600BF94F8B803012801D1D8
:10353000022070BD012084F8B80300BF05F08000B0
:10354000802805D105F07F01206802F0D9FD02E056
:10355000206802F0C2FD00BF002084F8B80300BF5D
:1035600000BFE6E70246116840F60800405800F048
:10357000010038B140F60400405840F0010340F625
:10358000040043500020704701460A6840F60400DA
:10359000805820F0010340F604008350002070475B
:1035A000014691F8B9037047F0B50346144600256B
:1035B00000221868426A21B942EA04401E68B062DB
:1035C00019E01868806A02EB1042002508E01868CC
:1035D00000F5827050F8250002EB1042681CC5B25D
:1035E000481EA842F3DC42EA0447186800F58270DE
:1035F0004E1E40F826700020F0BD02461068416261
:103600000020704701460A680120C1F8F403002039
:1036100081F8EC03906940F000609061506D464B7A
:103620001843506500207047024611680020C2F818
:10363000F403886920F000608861486D3E4BDB43ED
:1036400018404865002070477047704770B50546C0
:103650002C68FEF796F8064640F60400005900F084
:10366000020000284FD0A06B40F48020A0630AE045
:10367000FEF787F8801BB0F57A7F04D9FF21284632
:10368000FFF7E3FF70BDA06B00F001000028EFD052
:103690006420FDF736F8A06B00F0010018B1FE21A0
:1036A0002846FFF7D2FFA06B20F48020A063A06B18
:1036B00040F40020A0636420FDF723F8A06B00F025
:1036C000020020B9FD212846FFF7BFFF17E0A06BDD
:1036D00020F40020A063A06B40F48010A06364205D
:1036E000FDF70FF8A06B00F0040020B1FB21284685
:1036F000FFF7ABFF03E0FC212846FFF7A6FF002100
:103700002846FFF7A2FF00BFBCE701460A68012078
:10371000C1F8F803906B40F40030906300207047CC
:1037200001460A680020C1F8F803906B20F40030CD
:1037300090630020704700000300001000207047D5
:1037400038B504460CB9012038BD207800F00100DE
:10375000002874D0F848006800F00C0004280DD050
:10376000F548006800F00C00082813D1F248001F4B
:10377000006800F48000B0F5800F0BD1EE480838E7
:103780000068C0F34040002859D06068002856D136
:103790000120D9E700BF6068B0F5803F08D1E64856
:1037A0000838006840F48030E349083908601EE0BA
:1037B0006068B0F5A02F0DD1DF480838006840F4EC
:1037C0008020DD49083908600846006840F48030F0
:1037D00008600CE0D8480838006820F48030D649EA
:1037E000083908600846006820F48020086000BF9F
:1037F000606890B1FDF7C5FF054606E0FDF7C1FF23
:10380000401B642801D903209EE7CB480838006894
:10381000C0F340400028F1D011E0FDF7B2FF0546AB
:1038200006E0FDF7AEFF401B642801D903208BE7BB
:10383000C14808380068C0F340400028F1D1207822
:1038400000F0020002285FD1BB48006800F00C00C5
:1038500058B1B948006800F00C0008281CD1B648DF
:10386000001F006800F48000B0B9B3480838006851
:10387000C0F3400020B1E068012801D0012063E7D7
:10388000AD480838006820F0F800216940EAC1001E
:10389000A9490839086037E0E06800B30120A7496A
:1038A0000860FDF76EFF054606E0FDF76AFF401B66
:1038B000022801D9032047E79F4808380068C0F371
:1038C00040000028F1D09C480838006820F0F8003B
:1038D000216940EAC10098490839086014E00020D5
:1038E00096490860FDF74DFF054606E0FDF749FFE4
:1038F000401B022801D9032026E78F4808380068BA
:10390000C0F340000028F1D1207800F0080008281A
:103910002CD16069A8B1012089490860FDF731FF09
:10392000054606E0FDF72DFF401B022801D90320C4
:103930000AE781486C300068C0F340000028F1D0ED
:1039400014E000207E490860FDF71BFF054606E0F5
:10395000FDF717FF401B022801D90320F4E6764843
:103960006C300068C0F340000028F1D1207800F0EE
:10397000040004287FD100BF002000906E4838303A
:10398000006840F080506C49383108600846006893
:1039900000F08050009000BF00BF6A48006840F40B
:1039A000807068490860FDF7ECFE054606E0FDF70B
:1039B000E8FE401B022801D90320C5E661480068E3
:1039C00000F480700028F2D000BFA068012808D160
:1039D00059486830006840F0010057496831086074
:1039E0001DE0A06805280DD153486830006840F0FC
:1039F00004005149683108600846006840F0010041
:103A000008600CE04C486830006820F001004A492A
:103A1000683108600846006820F00400086000BFB4
:103A2000A068A0B1FDF7ADFE054608E0FDF7A9FED0
:103A3000401B41F28831884201D9032084E63E4888
:103A400068300068C0F340000028EFD013E0FDF7B5
:103A500098FE054608E0FDF794FE401B41F28831D0
:103A6000884201D903206FE6334868300068C0F30C
:103A700040000028EFD1A069B8B32F48006800F0DB
:103A80000C00082860D0A06902283ED100202B49F4
:103A90000866FDF776FE054606E0FDF772FE401B60
:103AA000022801D903204FE6234808380068C0F3F4
:103AB00040600028F1D1D4E907010843616A40EA77
:103AC00081110122A06AC2EB500041EA00412C2082
:103AD000005D41EA00601849091F0860012017498C
:103AE0000866FDF74EFE054607E02FE0FDF749FEAC
:103AF000401B022801D9032026E60F480838006839
:103B0000C0F340600028F1D020E000200B49086697
:103B1000FDF737FE054606E0FDF733FE401B0228A1
:103B200001D9032010E6044808380068C0F340605B
:103B30000028F1D10AE007E00838024000004742BF
:103B4000800E4742007000400120FDE50020FBE5AB
:103B50002DE9F047002400250026A146FB48006817
:103B600000F00C0020B1042805D008283AD105E067
:103B7000DFF8DC9339E0DFF8DC9336E0F348001F30
:103B8000006800F03F04F148001F006800F4800066
:103B900078B1F048ED49091F0968C1F38811A0FB0D
:103BA0000170014622460023384610F05EFE0546AD
:103BB0000EE0E748E549091F0968C1F38811A0FB39
:103BC0000170014622460023384610F04EFE05469D
:103BD000DE48001F0068C0F30140401C4600B5FBF2
:103BE000F6F902E0DFF8689300BF00BF4846BDE881
:103BF000F08770B504460D460CB9012070BDD6485B
:103C0000006800F00F00A84209D2D3490D700846A1
:103C1000006800F00F00A84201D00120EEE72078F4
:103C200000F0020002281DD1207800F004000428D2
:103C300005D1C648006840F4E050C44908602078C7
:103C400000F00800082805D1C048006840F4604032
:103C5000BE490860BD48006820F0F000A168084334
:103C6000BA490860207800F00100A8B36068012814
:103C700007D1B64808380068C0F34040B8B9012001
:103C8000BCE76068022802D06068032807D1AF480B
:103C900008380068C0F3406048B90120AEE7AB487F
:103CA00008380068C0F3400008B90120A6E7A7481B
:103CB000006820F0030061680843A4490860FDF72C
:103CC00060FD064609E0FDF75CFD801B41F288318E
:103CD000884202D9032091E707E09C48006800F081
:103CE0000C006168B0EB810FEDD19B48006800F0DB
:103CF0000F00A84209D998490D700846006800F0E5
:103D00000F00A84201D0012078E7207800F00400DD
:103D1000042807D18D48006820F4E050E16808438A
:103D20008A490860207800F00800082808D18748F0
:103D3000006820F46040216940EAC10083490860BE
:103D4000FFF706FF81490968C1F30311834A515CFB
:103D5000C840834908600F20FCF7C2FC00204DE7F3
:103D600070B586B006460C46154646BB00BF00201F
:103D7000009076482830006840F0010073492831EF
:103D800008600846006800F00100009000BF00BF16
:103D900088150190022002900320049000200390D7
:103DA000059001A96F48FEF781FB6848006820F084
:103DB000EC6044EA050108436449086027E000BF5D
:103DC0000020009061482830006840F004005F49FE
:103DD000283108600846006800F00400009000BF29
:103DE00000BF48150190022002900320049000209B
:103DF0000390059001A95C48FEF758FB5348006802
:103E000020F0784044EAC50108435049086006B0F4
:103E100070BD01205549C864704700205349C864EB
:103E200070474F480068704700B5FFF7FAFF4749F1
:103E30000968C1F382214E4A515CC84000BD00B5FB
:103E4000FFF7EFFF41490968C1F34231484A515C2D
:103E5000C84000BD0F2101603C490839096801F4E0
:103E60008021B1F5802F03D14FF4A02141600DE0F6
:103E700036490839096801F48031B1F5803F03D132
:103E80004FF48031416001E0002141602F49083941
:103E9000096801F0010111B10121C16001E00021B7
:103EA000C1602A4908390968C1F3C4010161274981
:103EB0006831096801F00401042902D105218160FB
:103EC0000AE022496831096801F0010111B10121BC
:103ED000816001E0002181601C496C31096801F0BA
:103EE000010111B10121416101E000214161174946
:103EF0000839096801F08071B1F1807F02D1022197
:103F0000816101E0012181611049091F096801F403
:103F10008002C2610D49091F096801F03F02026277
:103F20000A49091F0968C1F3881242620749091F3B
:103F3000096801F4403101F58031CA0B82620349FE
:103F4000091F0968C1F30362C26270470838024062
:103F50000024F40000127A00003C0240C46501080D
:103F6000000100200000024000080240000047421B
:103F7000D46501080F220260154A126802F003029C
:103F80004260134A126802F0F0028260104A12681E
:103F900002F4E052C2600E4A126802F46042D20893
:103FA00002610C4A126802F00F020A607047704703
:103FB00010B50748001D006800F08000802805D17A
:103FC000FFF7F5FF80200249891D087010BD000031
:103FD00008380240003C0240F8B50446002500269F
:103FE0000027207800F0010050B1FA48006820F066
:103FF000C06061690843F7490860606900B901273A
:10400000207800F0020002280AD1F248006820F06F
:10401000C050A1690843EF490860A06900B90127B1
:10402000207800F0080008287ED100BF0020009012
:10403000E8484C38006840F08050E6494C39086048
:104040000846006800F08050009000BF00BFE248C2
:10405000006840F48070E0490860FDF792FB054677
:1040600006E0FDF78EFB401B022801D90320F8BDB6
:10407000D948006800F480700028F2D0D5481C3878
:10408000006800F440764EB3A08B00F44070B0425C
:1040900024D0D0481C38006820F440760120CF4955
:1040A000086000200860CB481C380660006800F0FB
:1040B000010098B1FDF765FB054608E0FDF761FBDF
:1040C000401B41F28831884201D90320CFE7C14823
:1040D0001C380068C0F340000028EFD000BFA08B60
:1040E00000F44070B0F5407F0CD1BA4884380068C5
:1040F00020F4F810BA4AE16911400843B5498439FF
:10410000086007E0B3488438006820F4F810B1492B
:1041100084390860AF481C380068A18BC1F30B01DB
:104120000843AC491C3900E001E0086000BF20787A
:1041300000F00400042803D194F83800A94908606D
:10414000207800F01000102809D1A248083000683B
:1041500020F44000616A08439E49083108602078D5
:1041600000F0200020280ED19A480830006820F086
:104170000060A16A0843974908310860A06AB0F15D
:10418000006F00D10127207800F04000402809D1BD
:1041900090480830006820F08050216A08438D491B
:1041A00008310860012F02D0206880286CD10020DF
:1041B0008D498866FDF7E5FA054606E0FDF7E1FA68
:1041C000401B022801D9032051E782488C3800683F
:1041D000C0F3C0600028F1D18449606B086020788A
:1041E00000F0010008B16069D0B1207800F0020051
:1041F000022801D1A06998B1207800F02000202881
:1042000003D1A06AB0F1006F0AD0207800F040001E
:10421000402812D1206A80B9A06AB0F1006F0CD199
:10422000D4E9011041EA8011207B41EA0061207C41
:1042300041EA0070674908390860207800F0800082
:1042400080280CD1D4E9011041EA8011207B41EA99
:104250000061207C41EA00705E4908390860012055
:1042600061498866FDF78DFA054606E0FDF789FA93
:10427000401B022801D90320F9E656488C38006813
:10428000C0F3C0600028F1D0208800F48070B0F541
:10429000807F07D14F48006820F00040E16A084362
:1042A0004C490860208800F40070B0F5007F07D109
:1042B0004848006820F40040216B084345490860E5
:1042C0000020D4E640F27F320260424A083A126887
:1042D00002F03F0242603F4A083A1268C2F3881374
:1042E00083603C4A083A1268C2F30363C360394AE8
:1042F000083A1268C2F302730361364A126802F088
:10430000C0624261334A126802F0C0528261314A8F
:10431000843A126802F4F8112E4A1C3A126802F428
:1043200040720A43C2612B4A0832126802F440020A
:104330004262284A0832126802F000628262254A0C
:104340000832126802F080520262224A126802F0B9
:104350000042C2621F4A126802F4004202631D4A10
:10436000126802F080721AB9002280F8382002E048
:10437000012280F83820704770B5034600200021E4
:1043800000240022012B02D0022B7DD18DE0114DA3
:104390002D6805F0C0645CB1B4F1007F06D0B4F1C3
:1043A000806F4ED0B4F1C06F7BD16FE010487AE0DF
:1043B000084D083D2D6805F48005B5F5800F19D12D
:1043C000044D083D2D6805F03F05094EB6FBF5F19B
:1043D00028E000008C38024000700040400E474248
:1043E000FFFCFF0FE011474200004742D810474250
:1043F0000080BB00F84D2D6805F48005B5F5800FF1
:1044000008D1F54D80352D6805F03F05F34EB6FB1C
:10441000F5F107E0F04D80352D6805F03F05F04ED1
:10442000B6FBF5F1EC4D80352D68C5F3881505FB1D
:1044300001F2E94D80352D68C5F30275B2FBF5F048
:1044400031E0E54D2D6805F48005B5F5800F07D105
:10445000E14D2D6805F03F05E04EB6FBF5F106E0B5
:10446000DD4D2D6805F03F05DD4EB6FBF5F1DA4D6B
:104470002D68C5F3881505FB01F2D74D2D68C5F3EE
:104480000275B2FBF5F00EE08BE00AE0D24D2D682C
:1044900005F48005B5F5800F01D1D04800E0D04883
:1044A00001E0002000BF00BF7BE0CB4D88352D68C8
:1044B00005F0C0545CB1B4F1006F06D0B4F1805F78
:1044C0003DD0B4F1C05F68D15CE0C64867E0C24D42
:1044D00080352D6805F48005B5F5800F08D1BE4DF7
:1044E00080352D6805F03F05BE4EB6FBF5F117E0AF
:1044F000B94D2D6805F48005B5F5800F08D1B64D8E
:1045000080352D6805F03F05B44EB6FBF5F107E0A8
:10451000B14D80352D6805F03F05B14EB6FBF5F184
:10452000AD4D80352D68C5F3881505FB01F2AA4D08
:1045300080352D68C5F30275B2FBF5F02FE0A64D6E
:104540002D6805F48005B5F5800F07D1A24D2D68C3
:1045500005F03F05A14EB6FBF5F106E09E4D2D6836
:1045600005F03F059E4EB6FBF5F19B4D2D68C5F35A
:10457000881505FB01F2984D2D68C5F30275B2FB55
:10458000F5F00CE0944D2D6805F48005B5F5800F2D
:1045900001D1924800E0924801E0002000BF00BF36
:1045A00000BF00BF70BD012808D18B496C3109687C
:1045B00041F00801884A6C32116007E086496C318D
:1045C000096821F00801844A6C321160704710B507
:1045D000FDF7D7F804468048001F006840F001004E
:1045E0007D49091F086006E0FDF7CBF8001B022893
:1045F00001D9032010BD7848001F006800F00200B8
:104600000028F1D07448001F006840F08000724913
:10461000091F0860FDF7B5F8044600206E49091D22
:10462000086008E0FDF7ADF8001B41F288318842D0
:1046300001D90320DEE76848001D006800F00C0087
:104640000028EFD1FDF79DF804466348001F00687D
:1046500020F450206049091F086006E0FDF791F83A
:10466000001B642801D90320C4E75B48001F0068D1
:1046700000F400300028F1D1FDF783F804465648D5
:10468000001F006820F080705349091F086006E091
:10469000FDF777F8001B022801D90320AAE74E484E
:1046A000001F006800F000700028F1D1FDF769F8E4
:1046B00004464948001F006820F080604649091FF1
:1046C000086006E0FDF75DF8001B022801D9032011
:1046D00090E74148001F006800F000600028F1D119
:1046E00041483D4908603C498031086000203A4912
:1046F0000831086038497031086039483B49086022
:104700000F20FBF7EDFF08B1012073E7002071E7F0
:1047100038B504460025207800F00100002867D055
:104720002D48001D006800F00C0004280DD02A4818
:10473000001D006800F00C00082812D1264800680F
:1047400000F48000B0F5800F0BD12348001F0068F3
:10475000C0F34040002864D06068002861D1012087
:1047600038BD00BF6068B0F5803F08D11A48001F0F
:10477000006840F480301849091F08601EE0606836
:10478000B0F5A02F0DD11448001F006840F4802020
:104790001149091F08600846006840F4803008602D
:1047A0000CE00D48001F006820F480300A49091F02
:1047B00008600846006820F48020086000BF606838
:1047C000F0B1FCF7DEFF054613E0FCF7DAFF401B13
:1047D00064280ED90320C3E70438024000127A008F
:1047E0000024F4000080BB001030002400010020F1
:1047F00017E0FE480068C0F340400028E5D010E014
:10480000FCF7BFFF054606E0FCF7BBFF401B642832
:1048100001D90320A4E7F5480068C0F34040002810
:10482000F2D1207800F0020002285AD1EF48083077
:10483000006800F00C0060B1EC480830006800F03F
:104840000C00082819D1E948001D006800F4800018
:1048500098B9E6480068C0F3400020B1E06801283C
:1048600001D001207CE7E148006820F0F8002169D0
:1048700040EAC100DD49086033E0E068E8B10120AA
:10488000DB490860FCF77DFF054606E0FCF779FF91
:10489000401B022801D9032062E7D4480068C0F316
:1048A00040000028F2D0D148006820F0F8002169CB
:1048B00040EAC100CD49086013E00020CC490860FF
:1048C000FCF75FFF054606E0FCF75BFF401B022894
:1048D00001D9032044E7C5480068C0F34000002820
:1048E000F2D1207800F0080008282CD16069A8B126
:1048F0000120C0490860FCF744FF054606E0FCF7CC
:1049000040FF401B022801D9032029E7B748743033
:104910000068C0F340000028F1D014E00020B54941
:104920000860FCF72EFF054606E0FCF72AFF401B57
:10493000022801D9032013E7AC4874300068C0F3A3
:1049400040000028F1D1207800F0040004287FD135
:1049500000BF00200090A5484030006840F0805023
:10496000A249403108600846006800F0805000907D
:1049700000BF00BFA048006840F480709E490860F6
:10498000FCF7FFFE054606E0FCF7FBFE401B022895
:1049900001D90320E4E69848006800F480700028FC
:1049A000F2D000BFA068012808D19048703000689C
:1049B00040F001008D49703108601DE0A0680528B5
:1049C0000DD18A487030006840F00400874970318A
:1049D00008600846006840F0010008600CE0834869
:1049E0007030006820F0010080497031086008468E
:1049F000006820F00400086000BFA068A0B1FCF7C8
:104A0000C0FE054608E0FCF7BCFE401B41F28831C1
:104A1000884201D90320A3E6744870300068C0F3CF
:104A200040000028EFD013E0FCF7ABFE054608E09D
:104A3000FCF7A7FE401B41F28831884201D90320D0
:104A40008EE66A4870300068C0F340000028EFD15D
:104A5000A069D8B365480830006800F00C00082849
:104A600058D0A069022840D1002061490866FCF7AF
:104A700088FE054606E0FCF784FE401B022801D9AB
:104A800003206DE659480068C0F340600028F2D169
:104A9000D4E907010843616A40EA81110122A06A52
:104AA000C2EB500041EA00412C20005D41EA006168
:104AB0003020005D41EA00704C49091D086001206A
:104AC0004B490866FCF75DFE054607E024E0FCF76D
:104AD00058FE401B022801D9032041E643480068E4
:104AE000C0F340600028F2D016E00020404908667C
:104AF000FCF747FE054606E0FCF743FE401B022894
:104B000001D903202CE639480068C0F34060002832
:104B1000F2D101E0012023E6002021E60F2101600F
:104B20003249096801F48021B1F5802F03D14FF497
:104B3000A02141600CE02D49096801F48031B1F5F4
:104B4000803F03D14FF48031416001E0002141609A
:104B50002649096801F0010111B10121C16001E09C
:104B60000021C16021490968C1F3C40101611F49E5
:104B70007031096801F00401042902D10521816026
:104B80000AE01A497031096801F0010111B10121EF
:104B9000816001E00021816014497431096801F0ED
:104BA000010111B10121416101E0002141610F4981
:104BB000096801F08071B1F1807F02D10221816129
:104BC00001E0012181610949091D096801F48002A0
:104BD000C2610649091D096801F03F0202620349EA
:104BE000091D0968C1F38812426207E000380240DB
:104BF00000004742800E4742007000400A49091DEC
:104C0000096801F4403101F58031CA0B826206491E
:104C1000091D0968C1F30362C2620349091D0968DD
:104C2000C1F3027202637047003802402DE9F0417F
:104C3000044600252068056925F44055E0680543D1
:104C4000206805612068C56849F20C6085432169C8
:104C5000A068084361690843E16908430543206887
:104C6000C5602068456925F44075A0690543206842
:104C70004561E069B0F5004F7ED1FE492068884269
:104C800003D0FD49206888425DD1FFF7D8F800EBDA
:104C9000C00101EB001061684900B0FBF1F0642134
:104CA000B0FBF1F00601FFF7CAF800EBC00101EB21
:104CB000001061684900B0FBF1F7FFF7C0F800EBA6
:104CC000C00101EB001061684900B0FBF1F0642104
:104CD000B0FBF1F000EBC00101EB0010A7EB80008E
:104CE000322101EBC0006421B0FBF1F000F0F800CC
:104CF00006EB4006FFF7A3F800EBC00101EB001044
:104D000061684900B0FBF1F7FFF799F800EBC001CB
:104D100001EB001061684900B0FBF1F06421B0FBC9
:104D2000F1F000EBC00101EB0010A7EB8000322195
:104D300001EBC0006421B0FBF1F000F0070030444B
:104D40002168886020E1FFF76FF800EBC00101EBFC
:104D5000001061684900B0FBF1F06421B0FBF1F094
:104D60000601FFF761F800EBC00101EB001061687C
:104D70004900B0FBF1F700E045E0FFF755F800EB24
:104D8000C00101EB001061684900B0FBF1F0642143
:104D9000B0FBF1F000EBC00101EB0010A7EB8000CD
:104DA000322101EBC0006421B0FBF1F000F0F8000B
:104DB00006EB4006FFF738F800EBC00101EB0010EE
:104DC00061684900B0FBF1F7FFF72EF800EBC00176
:104DD00001EB001061684900B0FBF1F06421B0FB09
:104DE000F1F000EBC00101EB0010A7EB80003221D5
:104DF00001EBC0006421B0FBF1F000F0070030448B
:104E000021688860C0E09B492068884203D09A49A5
:104E1000206888425CD1FFF712F800EBC00101EB7B
:104E2000001061688900B0FBF1F6FFF708F800EBAD
:104E3000C00101EB001061688900B0FBF1F0642152
:104E4000B0FBF1F000EBC00101EB0010A6EB80001D
:104E5000322101EB00106421B0FBF1F000F0F0060C
:104E6000FEF7EDFF00EBC00101EB00106168890067
:104E7000B0FBF1F06421B0FBF1F006EB0016FEF799
:104E8000DEFF00EBC00101EB001061688900B0FBA0
:104E9000F1F7FEF7D4FF00EBC00101EB00106168F1
:104EA0008900B0FBF1F06421B0FBF1F000EBC00130
:104EB00001EB0010A7EB8000322101EB0010642110
:104EC000B0FBF1F000F00F003044216888605BE037
:104ED000FEF7AAFF00EBC00101EB0010616889003A
:104EE000B0FBF1F6FEF7A0FF00EBC00101EB0010F4
:104EF00061688900B0FBF1F06421B0FBF1F000EBD8
:104F0000C00101EB0010A6EB8000322101EB001084
:104F10006421B0FBF1F000F0F006FEF785FF00EB36
:104F2000C00101EB001061688900B0FBF1F0642161
:104F3000B0FBF1F006EB0016FEF776FF00EBC001C8
:104F400001EB001061688900B0FBF1F7FEF76CFF20
:104F500000EBC00101EB001061688900B0FBF1F0CB
:104F60006421B0FBF1F000EBC00101EB0010A7EBF6
:104F70008000322101EB00106421B0FBF1F000F061
:104F80000F00304421688860BDE8F081704710B59B
:104F900004460CB9012010BDA06900B100E000BFBB
:104FA00094F8390028B9002084F838002046FBF72F
:104FB0009FFF242084F839002068C06820F4005046
:104FC0002168C8602046FFF731FE2068006920F4A0
:104FD0009040216808612068406920F02A0021681B
:104FE00048612068C06840F400502168C860002013
:104FF000E063202084F8390084F83A000020CAE7F2
:1050000010B504460CB9012010BD94F8390028B938
:10501000002084F838002046FBF76AFF242084F83B
:1050200039002068C06820F400502168C86020461C
:10503000FFF7FCFD2068006920F4904021680861BA
:105040002068406920F0220021684861206840699A
:1050500040F00800216848612068C06840F40050B2
:105060002168C8600020E063202084F8390084F8BB
:105070003A0003E000100140001401400020C3E7A3
:1050800070B504460D460CB9012070BD94F8390086
:1050900028B9002084F838002046FBF729FF242097
:1050A00084F839002068C06820F400502168C86086
:1050B0002046FFF7BBFD2068006920F400602168EE
:1050C00008612068406920F02A0021684861206852
:1050D000006940F48040216808612068006920F080
:1050E0002000216808612068006928432168086160
:1050F0002068C06840F400502168C8600020E06368
:10510000202084F8390084F83A000020BDE770B50B
:1051100004460D4616460CB9012070BD94F83900BE
:1051200028B9002084F838002046FBF7E1FE24204F
:1051300084F839002068C06820F400502168C860F5
:105140002046FFF773FD2068006920F49040216835
:1051500008612068406920F02A00216848612068C1
:10516000006920F00F002168086120680069284369
:10517000216808612068C06820F400602168C86068
:105180002068C06830432168C8602068C06840F467
:1051900000502168C8600020E063202084F83900B6
:1051A00084F83A000020B8E7704710B504460CB9FF
:1051B000012010BD242084F839002046FBF776FF3B
:1051C0000020E06384F8390084F83A0000BF84F8D6
:1051D000380000BF00BFECE72DE9F04104460D4662
:1051E00017469846069E21E0701CF8B12EB1FCF7D8
:1051F000C8FAA0EB0800B04218D92068C06820F4B3
:10520000D0702168C8602068406920F001002168E2
:105210004861202084F8390084F83A0000BF00205B
:1052200084F8380000BF0320BDE8F08120680068E2
:105230002840A84201D1012000E00020B842D3D08C
:105240000020F1E72DE9F84304460D4616461F46B7
:105250004FF0000994F8390020285CD105B116B947
:105260000120BDE8F88300BF94F83800012801D17F
:105270000220F6E7012084F8380000BF0020E06338
:10528000212084F83900FCF77CFA8146A684E68464
:105290002BE0E08C401EE084A068B0F5805F16D162
:1052A0004B460022802120460097FFF795FF08B16A
:1052B0000320D6E7A846B8F80000C0F3080021682C
:1052C0004860206908B9AD1C0FE06D1C0DE04B462D
:1052D0000022802120460097FFF77EFF08B10320BF
:1052E000BFE715F8010B21684860E08C0028D0D199
:1052F0004B460022402120460097FFF76DFF08B182
:105300000320AEE7202084F8390000BF002084F895
:10531000380000BFA5E70220A3E72DE9F8430446C3
:105320000D4616461F464FF0000994F83A00202813
:1053300060D105B116B90120BDE8F88300BF94F82B
:105340003800012801D10220F6E7012084F8380056
:1053500000BF0020E063222084F83A00FCF711FA35
:105360008146A685E68539E0E08D401EE085A0688F
:10537000B0F5805F1BD14B460022202120460097CC
:10538000FFF72AFF08B10320D6E7A846206938B9FD
:1053900020684068C0F30800A8F80000AD1C1DE0BC
:1053A00020684068C0B2A8F800006D1C16E04B46AB
:1053B0000022202120460097FFF70EFF08B10320AE
:1053C000BAE7206920B92068406805F8010B05E0BC
:1053D0002068406800F07F0005F8010BE08D002890
:1053E000C2D1202084F83A0000BF002084F83800A1
:1053F00000BFA1E702209FE710B5034693F83900EC
:10540000202823D101B10AB9012010BD00BF93F8B3
:105410003800012801D10220F7E7012083F8380085
:1054200000BF19629A84DA840020D863212083F8AF
:10543000390000BF002083F8380000BF1868C0683A
:1054400040F080001C68E0600020DEE70220DCE71E
:1054500010B5034693F83A00202829D101B10AB9C2
:10546000012010BD00BF93F83800012801D10220AF
:10547000F7E7012083F8380000BF99629A85DA8542
:105480000020D863222083F83A0000BF002083F870
:10549000380000BF1868406940F001001C68606176
:1054A0001868C06840F490701C68E0600020D8E77D
:1054B0000220D6E770470168C96821F4907102683C
:1054C000D1600168496921F0010102685161202120
:1054D00080F83A1070470168C96821F0C00102687D
:1054E000D160202180F83910704770B5064600253C
:1054F000B46B20684069C0F3C01594F839002128C6
:1055000005D125B10020E0842046FFF7E4FF2068A4
:105510004069C0F3801594F83A00222805D125B1DE
:105520000020E0852046FFF7C6FFE06B40F010004A
:10553000E0632046FFF7BEFF70BD704770B50446BC
:10554000A56B2846FFF7F9FF70BD704770B505469B
:10555000AC6B2868006800F4807070B90020E084AB
:105560002068406920F08000216848612068C06898
:1055700040F040002168C86002E02046FFF7E5FFE8
:1055800070BDF7B50446154694F8390020283DD182
:10559000019800B10DB90120FEBD00BF94F838009C
:1055A000012801D10220F7E7012084F8380000BF6C
:1055B00001982062A584E5840020E063212084F81E
:1055C0003900FA48216BC863F948216B0864F9482F
:1055D000216BC8640020216B086501AE23681A1D89
:1055E00031682B46206BFCF765FC6FF040002168AA
:1055F000086000BF002084F8380000BF20684069C0
:1056000040F08000216848610020C5E70220C3E720
:10561000704770B50446A56B2846FFF7F9FF70BDCB
:10562000704770B50546AC6B2868006800F4807060
:10563000B0B90020E0852068C06820F4807021683F
:10564000C8602068406920F0010021684861206836
:10565000406920F0400021684861202084F83A0029
:105660002046FFF7DDFF70BD77B581B004461546D3
:1056700094F83A00202850D1029800B115B90120C1
:1056800004B070BD00BF94F83800012801D1022099
:10569000F6E7012084F8380000BF0298A062A585D3
:1056A0000020E063222084F83A00C348616BC8639D
:1056B000C248616B0864BF48616BC8640020616BBD
:1056C000086502AE32682368191D2B46606BFCF733
:1056D000F1FB00BF00200090206800680090206867
:1056E0004068009000BF00BF00BF002084F8380071
:1056F00000BF2068C06840F480702168C8602068DE
:10570000406940F00100216848612068406940F02C
:105710004000216848610020B2E70220B0E701465E
:10572000002200BF91F83800012801D10220704703
:10573000012081F8380000BF08684069C0F3C0123A
:1057400091F83900212806D12AB10868406920F073
:1057500080000B68586108684069C0F3801291F8B6
:105760003A00222812D18AB10868C06820F48070FB
:105770000B68D8600868406920F001000B68586128
:105780000868406920F040000B68586100BF0020A5
:1057900081F8380000BF00BFC9E708B5014600BF67
:1057A00091F83800012801D1022008BD012081F8BC
:1057B000380000BF91F83900212805D108684069F8
:1057C00040F080000A68506191F83A0022281CD10C
:1057D00000BF0020009008680068009008684068DA
:1057E000009000BF00BF0868C06840F480700A687D
:1057F000D0600868406940F001000A68506108689C
:10580000406940F040000A68506100BF002081F804
:10581000380000BF00BFC8E770B504460025206807
:105820004069C0F3C01594F8390021280ED16DB13C
:105830002068406920F0800021684861206B10B129
:10584000206BFCF786FB2046FFF745FE2068406989
:10585000C0F3801594F83A0022280ED16DB120686B
:10586000406920F0400021684861606B10B1606BB6
:10587000FCF76FFB2046FFF71EFE002070BD10B541
:1058800004462068C06820F4F0702168C860206871
:10589000406920F00100216848612068406900F0FB
:1058A000800068B12068406920F08000216848616C
:1058B000206B28B10020216B0865206BFCF749FBA9
:1058C0002068406900F0400068B12068406920F01D
:1058D000400021684861606B28B10020616B086559
:1058E000606BFCF736FB0020E084E085E06320205D
:1058F00084F83A0084F83900002010BD10B5044641
:105900002068C06820F0C0002168C8602068406935
:1059100000F0800068B12068406920F080002168B4
:105920004861206B28B10020216B0865206BFCF7D3
:1059300010FB0020E084202084F83900002010BDF6
:1059400010B504462068C06820F490702168C860D3
:105950002068406920F001002168486120684069A2
:1059600000F0400068B12068406920F040002168E4
:105970004861606B28B10020616B0865606BFCF7C3
:10598000E8FA0020E085202084F83A00002010BDCD
:10599000704770B50546AC6B0020616B0865206BE5
:1059A00070B1206B006D58B170BD00004D550008FE
:1059B0003D550008EB540008235600081356000814
:1059C0000020E084E085E063202084F8390084F83A
:1059D0003A002046FFF7DCFF00BFE5E770B505465B
:1059E000AC6B0020216B0865606B18B1606B006DBB
:1059F00000B170BD0020E084E085E063202084F8E1
:105A0000390084F83A002046FFF7C2FF00BFF0E7F4
:105A100070B5044601252068C06820F4F070216844
:105A2000C8602068406920F0010021684861206B4F
:105A300058B12068406900F0800018B1F848216B27
:105A4000086502E00020216B0865606B58B1206892
:105A5000406900F0400018B1F248616B086502E04F
:105A60000020616B08652068406900F0800080B10B
:105A70002068406920F0800021684861206B40B1B7
:105A8000206BFCF7BFFA18B10020216B086500E01D
:105A900000252068406900F0400088B12068406916
:105AA00020F0400021684861606B48B1606BFCF7F2
:105AB000A9FA20B10020616B0865012500E00025EE
:105AC000012D0BD10020E084E085E063202084F8E4
:105AD000390084F83A002046FFF75AFF002070BDD5
